:02000000302BA3
:100006000F30831203130805F100F03083166105E3
:10001600F000700871048312880008148814000028
:1000260088100330FC009730FD00FD0B1828FC0BF0
:100036001828000000000F300805F200831661083A
:10004600F000F00D7010F00D7010F00D7010F00D46
:1000560070107008720483128800881400008810DB
:100066000830FC00C930FD00FD0B3728FC0B372893
:060076000000000008007C
:0E007C00831603135A088A00590882000800F0
:10008A00831203137008F100F0010830FC007108B4
:10009A00F40C03185428FC0B4D28F101003403100A
:1000AA005928F40C0318F107F10CF00CFC0B562834
:0200BA0008003C
:1000BC000F30831203130805F100F030831660052E
:1000CC00F000700871048312880008108814000076
:1000DC0088100330FC009730FD00FD0B7328FC0BDF
:1000EC007328000000000F300805F200831660082A
:1000FC00F000F00D7010F00D7010F00D7010F00D90
:10010C007010700872048312880088140000881024
:10011C000830FC00C930FD00FD0B9228FC0B922826
:06012C00000000000800C5
:1001320083120313F801F9011030FC00710DF80D60
:10014200F90D7408F8027508031C750FF9020318FB
:10015200B1287408F80775080318750FF90703101A
:0A016200F00DF10DFC0B9F280800C2
:10016C0083160313600884000008003A0319C6289C
:10017C00600884000008E10003208316E00AB6281A
:02018C00080069
:0E018E00F0308316031386007F3081050800D1
:10019C008316031388013430FC00F130FD00FD0B95
:1001AC00D528FC0BD528000000000230E0005E20B2
:1001BC0028308316E0005E2001308316E0005E20BC
:1001CC000C308316E0005E2006308316E0005E20C3
:0201DC00080019
:1001DE0083160313DE0105305E020318FD285E0848
:1001EE005D07840020308000DE0AF2285E085D077D
:1001FE0084008001DE035E085D07DF000A30F40034
:10020E00F5015B08F0005C08F10099207808F00019
:10021E007908F1003030F00783165F08840070080B
:10022E0080000A30F400F5015B08F0005C08F10074
:10023E00992070088316DB007108DC00003071060F
:10024E00031D2B2900307006031D2E293029DE03D5
:04025E000229080069
:100262003E208A110A128000840AD90A0319DA0A86
:08027200F003031D312908000F
:10027A0083160313D8015B08013C031C4E290F3077
:10028A005C05F000F0177008D8007008E0005E20E6
:10029A0059290F3083165C05F000C030F00470084D
:1002AA00D8007008E0005E2083165D08E000B620E2
:0202BA0008003A
:1002BC000030831603135D06031D662901305C06AE
:1002CC00031DA5295B08003A031DA42909308312DC
:1002DC0085000630FC003030FD00FD0B7329FC0B53
:1002EC00732900000C3085000630FC003030FD0016
:1002FC00FD0B7E29FC0B7E290000063085000630A4
:10030C00FC003030FD00FD0B8929FC0B8929000015
:10031C00033085000630FC003030FD00FD0B9429C5
:10032C00FC0B94290000093085000630FC003030AD
:10033C00FD00FD0B9F29FC0B9F290000EA290030D2
:10034C0083165D06031DAC2902305C06031DEA29E9
:10035C005B08003A031DEA299030831287000630AF
:10036C00FC003030FD00FD0BB929FC0BB929000055
:10037C00C03087000630FC003030FD00FD0BC42976
:10038C00FC0BC4290000603087000630FC003030C4
:10039C00FD00FD0BCF29FC0BCF290000303087006E
:1003AC000630FC003030FD00FD0BDA29FC0BDA299D
:1003BC000000903087000630FC003030FD00FD0B53
:0A03CC00E529FC0BE52900000800FC
:1003D600013083160313E0005E200830FC00C930AC
:1003E600FD00FD0BF429FC0BF429000000000800B9
:1003F6005A30831603135B07F3005C080318013EAB
:10040600F4000330F2007308F0007408F10072087B
:100416000319122AF00DF10D7010FF3E0B2AF4306D
:100426007007F30071080318013E013EF4007308DB
:10043600F0007408F100F10CF00CF113711BF117C8
:10044600F10CF00CF113711BF11770088312950073
:10045600CF301705F50003307305F2007208F0007F
:10046600F00D7010F00D7010F00D7010F00D701092
:100476007008750497000330FB000830FC007730E5
:10048600FD00FD0B442AFC0B442AFB0B442A080002
:10049600831203138601061E552A861E552A061F39
:1004A600552AC32A0610861586195B2A06115C2A68
:1004B60006150619602A8610612A8614061E682A01
:1004C600861E682A061F682A772A0230FB00043037
:1004D600FC00BA30FD00FD0B6E2AFC0B6E2AFB0BEE
:1004E6006E2A0000EF01C32A86100614061E802A13
:1004F600861E802A061F802A902A0230FB000430BE
:10050600FC00BA30FD00FD0B862AFC0B862AFB0B8D
:10051600862A00000130EF00C32A06118614061E43
:10052600992A861E992A061F992AA92A0230FB00B3
:100536000430FC00BA30FD00FD0B9F2AFC0B9F2AFD
:10054600FB0B9F2A00000230EF00C32A8611061516
:10055600061EB22A861EB22A061FB22AC22A0230F6
:10056600FB000430FC00BA30FD00FD0BB82AFC0B82
:10057600B82AFB0BB82A00000330EF00C32A4E2A24
:10058600061AD92A861ED92A061FD92A0230FB0046
:100596000430FC00BA30FD00FD0BCF2AFC0BCF2A3D
:1005A600FB0BCF2A00008316D401082B8312061EEC
:1005B600F12A861AF12A061FF12A0230FB000430BE
:1005C600FC00BA30FD00FD0BE62AFC0BE62AFB0B0D
:1005D600E62A000001308316D400082B8312061E7B
:1005E600082B861E082B061B082B0230FB00043046
:1005F600FC00BA30FD00FD0BFE2AFC0BFE2AFB0BAD
:10060600FE2A000002308316D4008312061E102B29
:10061600861E102B061F102B112B082B0330F00003
:100626006F08F40045203830F00783165408700729
:0806360084000008F000080038
:10063E0083160313071183129715171597101710AA
:10064E0097121712121492141215F9308316920083
:02065E00080092
:1006600050261F23D201D30106309F008701FF309F
:1006700083128700831685010F30831285000330B3
:1006800083168904CE20C720DB01DC01FB21023068
:100690008316DB00DC012230DD003D2100308312B7
:1006A0002106031D552B00302006031D6C2B203026
:1006B0008316E100032020308316E1000320203060
:1006C0008316E100032020308316E1000320303040
:1006D0008316E10003207D2B20088316DB008312A4
:1006E00021088316DC00CC30DD00EF200230DB0077
:1006F0000730DC00CC30DD003D2183160130DB000B
:10070000DC012D30DD003D210F30E0005E20831242
:10071000061E0B2C861E0B2C061F0B2C8918C52BB6
:1007200005302007F00021080318013EF100700891
:10073000A0007108A10070088316DB007108DC00BE
:10074000CC30DD00EF200230DB000730DC00CC30A5
:10075000DD003D210130DB000930DC002B30DD0005
:100760003D210130B7000030B8000B30FB002630CF
:10077000FC005D30FD00FD0BBB2BFC0BBB2BFB0B12
:10078000BB2B00000000B701B801831209180A2C26
:100790000730FB001730FC006A30FD00FD0BCE2B4C
:1007A000FC0BCE2BFB0BCE2B000032302007F000D1
:1007B00021080318013EF1007008A0007108A10093
:1007C00070088316DB007108DC00CC30DD00EF2000
:1007D0000230DB000730DC00CC30DD003D21013091
:1007E000DB000930DC006D30DD003D210130B70059
:1007F0000030B8000B30FB002630FC005D30FD00FF
:10080000FD0B002CFC0B002CFB0B002C000000004F
:10081000B701B801872B4B227008D7007008313A16
:1008200003191F2C5708323A03191F2C5708333A63
:1008300003191F2C57082A3A03191F2C292C0130A1
:10084000DB000930DC00CA30DD003D215708E10043
:10085000032083165708313A031DF42C0C30E000B6
:100860005E200630FB001330FC00AD30FD00FD0BB8
:10087000372CFC0B372CFB0B372C00000000EB2136
:1008800001308316DB00DC01B930DD003D21023090
:10089000DB00DC01AE30DD003D210030831221069B
:1008A000031D542C00302006031D6B2C20308316B2
:1008B000E100032020308316E1000320203083165E
:1008C000E100032020308316E1000320303083163E
:1008D000E1000320732C02308316DB000730DC00BC
:1008E000CC30DD003D21003083122102031D7A2C23
:1008F00005302002031CE12C01308316D5000030A6
:10090000D6000D30FC00FB30FD00FD0B852CFC0BF0
:10091000852C0000000005308312A002031CA103F7
:100920001A30FB005E30FC006E30FD00FD0B962C93
:10093000FC0B962CFB0B962C0000EB210130831650
:10094000DB00DC014430DD003D21D201D301043065
:100950005302031DAD2C383052020318BB2CDB01AF
:100960005508DC005608DD005E2183160313D20A09
:100970000319D30AA72C0630FB001330FC00AD305E
:10098000FD00FD0BC12CFC0BC12CFB0BC12C00008E
:100990000000EB215A308316DB000030DC00FB2125
:1009A0006630FB007630FC00C130FD00FD0BD62C1C
:1009B000FC0BD62CFB0BD62C8316DB01DC01FB21B8
:1009C000F32C8601061EE92C861EE92C061FE92C55
:1009D000E22C4B227008D70070082A3A031DF22C33
:1009E000EB21F32C402CBE2D83165708323A031D01
:1009F000BE2D0C30E0005E200630FB001330FC0002
:100A0000AD30FD00FD0B022DFC0B022DFB0B022D6A
:100A100000000000EB2101308316DB00DC015230C6
:100A2000DD003D210230DB00DC016430DD003D21D2
:100A3000003083122106031D1F2D00302006031DE8
:100A4000362D20308316E100032020308316E1008C
:100A5000032020308316E100032020308316E100BC
:100A6000032030308316E10003203E2D0230831630
:100A7000DB000730DC00CC30DD003D21003083128C
:100A80002102031D452D32302002031CAC2D023003
:100A90008316D5000030D6000D30FC00FB30FD0081
:100AA000FD0B502DFC0B502D000000003230831246
:100AB000A002031CA1031A30FB005E30FC006E3064
:100AC000FD00FD0B612DFC0B612DFB0B612D00006A
:100AD000EB2101308316DB00DC01A030DD003D217D
:100AE000D201D30104305302031D782D3830520255
:100AF0000318862DDB015508DC005608DD005E2159
:100B000083160313D20A0319D30A722D0630FB0091
:100B10001330FC00AD30FD00FD0B8C2DFC0B8C2D3B
:100B2000FB0B8C2D00000000EB215A308316DB00FC
:100B30000030DC00FB216630FB007630FC00C13069
:100B4000FD00FD0BA12DFC0BA12DFB0BA12D831690
:100B5000DB01DC01FB21BE2D8601061EB42D861EA5
:100B6000B42D061FB42DAD2D4B227008D700700890
:100B70002A3A031DBD2DEB21BE2D0B2D0230FB00AB
:100B80000430FC00BA30FD008312FD0BC42DFC0BB9
:0E0B9000C42DFB0BC42D00008601472BCE2D7B
:100CA00020308400443083120313F000D4308316C4
:100CB000D9000530DA003121A03084000E308312D3
:100CC000F0002D308316D9000630DA00312164306F
:100CD000840009308312F0003B308316D9000630BF
:100CE000DA003121AE30840009308312F000443044
:100CF0008316D9000630DA0031216D3084000230CD
:100D00008312F0004D308316D9000630DA0031210D
:100D1000B730840015308312F00018308316D900E4
:080D20000630DA003121080061
:040BA80000340034E1
:100BAC00423461346C3461346E34633465343A34B9
:020BBC00003403
:040BBE003A34003491
:100BC2004934743465346D34283431342C3432343D
:060BD20029343A3400341E
:100BD80031343234333434343534363437343834C9
:080BE80039342A34303423347F
:100BF00050346C3465346134733465342034773464
:0C0C00006134693474342E342E34003416
:100C0C004934743465346D3432343A3435343034D8
:100C1C002034503469346134733474346534723430
:040C2C0073340034E9
:040C30000034003458
:100C34004934743465346D3431343A3435342034C1
:100C440050346934613473347434653472347334B5
:020C540000346A
:040C56003A340034F8
:100C5A0050346C34653461347334653420347734F9
:0C0C6A006134693474342E342E340034AC
:100C7600423461346C3461346E34633465343A34EE
:020C8600003438
:100C8800423461346C3461346E34633465343A34DC
:020C9800003426
:040C9A003A340034B4
:02400E004A2F37
:00000001FF
